{"abi":[{"type":"constructor","inputs":[{"name":"registry_","type":"address","internalType":"address"}],"stateMutability":"nonpayable"},{"type":"function","name":"CSD_USDC_AUTH_TYPEHASH","inputs":[],"outputs":[{"name":"","type":"bytes32","internalType":"bytes32"}],"stateMutability":"view"},{"type":"function","name":"SETTLEMENT_LOCK_SECONDS","inputs":[],"outputs":[{"name":"","type":"uint256","internalType":"uint256"}],"stateMutability":"view"},{"type":"function","name":"consumedCsdTx","inputs":[{"name":"","type":"bytes32","internalType":"bytes32"}],"outputs":[{"name":"","type":"bool","internalType":"bool"}],"stateMutability":"view"},{"type":"function","name":"domainSeparator","inputs":[],"outputs":[{"name":"","type":"bytes32","internalType":"bytes32"}],"stateMutability":"view"},{"type":"function","name":"finalizedAuthorization","inputs":[{"name":"","type":"bytes32","internalType":"bytes32"}],"outputs":[{"name":"","type":"bool","internalType":"bool"}],"stateMutability":"view"},{"type":"function","name":"hashCsdUsdcAuthorization","inputs":[{"name":"auth","type":"tuple","internalType":"struct CsdUsdcSettlement.CsdUsdcAuthorization","components":[{"name":"buyer","type":"address","internalType":"address"},{"name":"sellerUsdcRecipient","type":"address","internalType":"address"},{"name":"sellerCsdScriptHash","type":"bytes32","internalType":"bytes32"},{"name":"csdGenesisHash","type":"bytes32","internalType":"bytes32"},{"name":"tradeIntentHash","type":"bytes32","internalType":"bytes32"},{"name":"csdAmount","type":"uint256","internalType":"uint256"},{"name":"usdc","type":"address","internalType":"address"},{"name":"usdcAmount","type":"uint256","internalType":"uint256"},{"name":"minConfirmations","type":"uint256","internalType":"uint256"},{"name":"validAfter","type":"uint64","internalType":"uint64"},{"name":"validBefore","type":"uint64","internalType":"uint64"},{"name":"nonce","type":"bytes32","internalType":"bytes32"}]}],"outputs":[{"name":"","type":"bytes32","internalType":"bytes32"}],"stateMutability":"view"},{"type":"function","name":"lockCsdUsdcAuthorization","inputs":[{"name":"auth","type":"tuple","internalType":"struct CsdUsdcSettlement.CsdUsdcAuthorization","components":[{"name":"buyer","type":"address","internalType":"address"},{"name":"sellerUsdcRecipient","type":"address","internalType":"address"},{"name":"sellerCsdScriptHash","type":"bytes32","internalType":"bytes32"},{"name":"csdGenesisHash","type":"bytes32","internalType":"bytes32"},{"name":"tradeIntentHash","type":"bytes32","internalType":"bytes32"},{"name":"csdAmount","type":"uint256","internalType":"uint256"},{"name":"usdc","type":"address","internalType":"address"},{"name":"usdcAmount","type":"uint256","internalType":"uint256"},{"name":"minConfirmations","type":"uint256","internalType":"uint256"},{"name":"validAfter","type":"uint64","internalType":"uint64"},{"name":"validBefore","type":"uint64","internalType":"uint64"},{"name":"nonce","type":"bytes32","internalType":"bytes32"}]},{"name":"authSig","type":"bytes","internalType":"bytes"}],"outputs":[],"stateMutability":"nonpayable"},{"type":"function","name":"lockedAmount","inputs":[{"name":"","type":"bytes32","internalType":"bytes32"}],"outputs":[{"name":"","type":"uint256","internalType":"uint256"}],"stateMutability":"view"},{"type":"function","name":"lockedBalance","inputs":[{"name":"authHash","type":"bytes32","internalType":"bytes32"}],"outputs":[{"name":"","type":"uint256","internalType":"uint256"}],"stateMutability":"view"},{"type":"function","name":"lockedUntil","inputs":[{"name":"","type":"bytes32","internalType":"bytes32"}],"outputs":[{"name":"","type":"uint256","internalType":"uint256"}],"stateMutability":"view"},{"type":"function","name":"refundExpiredLock","inputs":[{"name":"auth","type":"tuple","internalType":"struct CsdUsdcSettlement.CsdUsdcAuthorization","components":[{"name":"buyer","type":"address","internalType":"address"},{"name":"sellerUsdcRecipient","type":"address","internalType":"address"},{"name":"sellerCsdScriptHash","type":"bytes32","internalType":"bytes32"},{"name":"csdGenesisHash","type":"bytes32","internalType":"bytes32"},{"name":"tradeIntentHash","type":"bytes32","internalType":"bytes32"},{"name":"csdAmount","type":"uint256","internalType":"uint256"},{"name":"usdc","type":"address","internalType":"address"},{"name":"usdcAmount","type":"uint256","internalType":"uint256"},{"name":"minConfirmations","type":"uint256","internalType":"uint256"},{"name":"validAfter","type":"uint64","internalType":"uint64"},{"name":"validBefore","type":"uint64","internalType":"uint64"},{"name":"nonce","type":"bytes32","internalType":"bytes32"}]}],"outputs":[],"stateMutability":"nonpayable"},{"type":"function","name":"registry","inputs":[],"outputs":[{"name":"","type":"address","internalType":"contract CovenantAuthorizationRegistry"}],"stateMutability":"view"},{"type":"function","name":"settleCsdUsdc","inputs":[{"name":"auth","type":"tuple","internalType":"struct CsdUsdcSettlement.CsdUsdcAuthorization","components":[{"name":"buyer","type":"address","internalType":"address"},{"name":"sellerUsdcRecipient","type":"address","internalType":"address"},{"name":"sellerCsdScriptHash","type":"bytes32","internalType":"bytes32"},{"name":"csdGenesisHash","type":"bytes32","internalType":"bytes32"},{"name":"tradeIntentHash","type":"bytes32","internalType":"bytes32"},{"name":"csdAmount","type":"uint256","internalType":"uint256"},{"name":"usdc","type":"address","internalType":"address"},{"name":"usdcAmount","type":"uint256","internalType":"uint256"},{"name":"minConfirmations","type":"uint256","internalType":"uint256"},{"name":"validAfter","type":"uint64","internalType":"uint64"},{"name":"validBefore","type":"uint64","internalType":"uint64"},{"name":"nonce","type":"bytes32","internalType":"bytes32"}]},{"name":"authSig","type":"bytes","internalType":"bytes"},{"name":"proof","type":"tuple","internalType":"struct CsdUsdcSettlement.CsdPaymentProofAttestation","components":[{"name":"csdTxid","type":"bytes32","internalType":"bytes32"},{"name":"csdGenesisHash","type":"bytes32","internalType":"bytes32"},{"name":"sellerCsdScriptHash","type":"bytes32","internalType":"bytes32"},{"name":"tradeIntentHash","type":"bytes32","internalType":"bytes32"},{"name":"csdAmount","type":"uint256","internalType":"uint256"},{"name":"confirmations","type":"uint256","internalType":"uint256"},{"name":"blockHash","type":"bytes32","internalType":"bytes32"},{"name":"blockHeight","type":"uint256","internalType":"uint256"}]}],"outputs":[],"stateMutability":"nonpayable"},{"type":"function","name":"usdcLocked","inputs":[{"name":"","type":"bytes32","internalType":"bytes32"}],"outputs":[{"name":"","type":"bool","internalType":"bool"}],"stateMutability":"view"},{"type":"event","name":"CsdUsdcAuthorizationFinalized","inputs":[{"name":"authHash","type":"bytes32","indexed":true,"internalType":"bytes32"},{"name":"csdTxid","type":"bytes32","indexed":true,"internalType":"bytes32"}],"anonymous":false},{"type":"event","name":"CsdUsdcAuthorizationLocked","inputs":[{"name":"authHash","type":"bytes32","indexed":true,"internalType":"bytes32"},{"name":"lockedUntil","type":"uint256","indexed":false,"internalType":"uint256"}],"anonymous":false},{"type":"event","name":"CsdUsdcSettled","inputs":[{"name":"authHash","type":"bytes32","indexed":true,"internalType":"bytes32"},{"name":"csdTxid","type":"bytes32","indexed":true,"internalType":"bytes32"},{"name":"buyer","type":"address","indexed":true,"internalType":"address"},{"name":"sellerUsdcRecipient","type":"address","indexed":false,"internalType":"address"},{"name":"usdc","type":"address","indexed":false,"internalType":"address"},{"name":"usdcAmount","type":"uint256","indexed":false,"internalType":"uint256"},{"name":"csdAmount","type":"uint256","indexed":false,"internalType":"uint256"},{"name":"confirmations","type":"uint256","indexed":false,"internalType":"uint256"},{"name":"blockHash","type":"bytes32","indexed":false,"internalType":"bytes32"},{"name":"blockHeight","type":"uint256","indexed":false,"internalType":"uint256"}],"anonymous":false},{"type":"error","name":"AuthorizationAlreadyFinalized","inputs":[{"name":"authHash","type":"bytes32","internalType":"bytes32"}]},{"type":"error","name":"AuthorizationExpired","inputs":[{"name":"authHash","type":"bytes32","internalType":"bytes32"}]},{"type":"error","name":"AuthorizationLocked","inputs":[{"name":"authHash","type":"bytes32","internalType":"bytes32"},{"name":"lockedUntil","type":"uint256","internalType":"uint256"}]},{"type":"error","name":"AuthorizationNotLocked","inputs":[{"name":"authHash","type":"bytes32","internalType":"bytes32"}]},{"type":"error","name":"AuthorizationRevoked","inputs":[{"name":"authHash","type":"bytes32","internalType":"bytes32"}]},{"type":"error","name":"BadSignature","inputs":[]},{"type":"error","name":"CsdTxAlreadyConsumed","inputs":[{"name":"csdTxid","type":"bytes32","internalType":"bytes32"}]},{"type":"error","name":"InsufficientConfirmations","inputs":[]},{"type":"error","name":"InvalidProofAttestation","inputs":[]},{"type":"error","name":"TransferFailed","inputs":[]},{"type":"error","name":"UnauthorizedExecutor","inputs":[]}],"bytecode":{"object":"0x60c034610145576001600160401b0390601f61115338819003918201601f191683019291908484118385101761013157816020928492604096875283398101031261014557516001600160a01b038116908190036101455760805260116020825161006981610149565b8281520170436f76656e616e74204353442f5553444360781b8152209060016020825161009581610149565b82815201603160f81b8152209080519160208301937f8b73c3c69bb8fe3d512ecc4cf759cc79239f7b179b0ffacaa9a75d522b39400f85528284015260608301524660808301523060a083015260a0825260c0820193828510908511176101315783905251902060a052610fee908161016582396080518181816101960152818161083f01526108e8015260a05181818160d20152610e0d0152f35b634e487b7160e01b5f52604160045260245ffd5b5f80fd5b604081019081106001600160401b038211176101315760405256fe6080604081815260049182361015610015575f80fd5b5f92833560e01c918263172a16a414610ba75750816348d25d3414610b8a5781635abb7d4c1461089b5781635cef910e1461086e5781637b1039991461082a5781637e93bafd1461080357816395c3c4de146107d9578163990f9bf7146107b1578163bcde3f4914610776578163c7112a9914610606578163c931cb29146105da578163d1e836b91461012a578163e7cf2c0a146100f9575063f698da25146100bc575f80fd5b346100f557816003193601126100f557602090517f00000000000000000000000000000000000000000000000000000000000000008152f35b5080fd5b905034610126576020366003190112610126578160209360ff923581526001855220541690519015158152f35b8280fd5b839150346100f55736600319016102a0811261012657610180136100f55767ffffffffffffffff610184358181116105d6576101699036908401610bcb565b9190946101006101a3193601126105d2578051630c570df360e11b815233858201526001600160a01b03967f0000000000000000000000000000000000000000000000000000000000000000881694602094602493919291868186818b5afa9081156105c8578a916105ab575b501561059b576101ed6101e836610c33565b610cfe565b96878a5289875260ff868b20541661058557878a5260038752858a20544211908789878c8a519485938492636524d36160e01b84528301525afa90811561057b578b9161055e575b5080610557575b6105415761052b578061024d610e71565b164210908115610518575b5061050257906102689186610ee3565b8780610272610ea1565b169116036104f2576064356101c435036104e25760843561020435036104e2576044356101e435036104e25760a435908161022435106104d25761024435926101043584106104c3576101a435968789526001865260ff828a2054166104af57878952600186528189209260ff1993600185825416179055878a52898752828a206001858254161790556002875260ff838b2054161561049b57508689528086528189205460e4359384821061048b576103919188918a8d528483528c8681205560028352858d20908154169055600382528b858120558c610352610eb7565b1661035b610ecd565b865163a9059cbb60e01b81526001600160a01b03909116868201908152602081019390935293849283918f918391604090910190565b03925af1908115610481578a91610454575b50156104465750928798927fb4a2aac454a1f9166f65cc057960c461299c467abad997b62266488ad5459ed795928589897fc2573b9993e0700131a430d91b3b315e05d7dfc4d663f4504eb399060f1ed53160e099519d80a3610404610ea1565b948661040e610ecd565b8d82610418610eb7565b9216905216908c01528a0152606089015260808801526102643560a08801526102843560c08801521694a480f35b90516312171d8360e31b8152fd5b6104749150873d891161047a575b61046c8183610bfd565b810190610e59565b8b6103a3565b503d610462565b83513d8c823e3d90fd5b83516312171d8360e31b81528390fd5b91516302579c5f60e11b8152908101879052fd5b9051630b2e952160e41b8152908101879052fd5b5163e16db4b360e01b81528690fd5b8251638a7cccbb60e01b81528690fd5b8151638a7cccbb60e01b81528590fd5b8151635cd5d23360e01b81528590fd5b83516324de6f8f60e11b81528088018790528390fd5b9050610522610e89565b1642118a610258565b84516302579c5f60e11b81528089018890528490fd5b85516377bc37a960e11b8152808a018990528590fd5b508061023c565b6105759150883d8a1161047a5761046c8183610bfd565b8c610235565b87513d8d823e3d90fd5b85516355c0e68760e11b8152808a018990528590fd5b84516341c8302160e11b81528890fd5b6105c29150873d891161047a5761046c8183610bfd565b8b6101d6565b86513d8c823e3d90fd5b8480fd5b8380fd5b905034610126576020366003190112610126578160209360ff9235815280855220541690519015158152f35b9190503461012657610180366003190112610126576106276101e836610c33565b80845260209084825260ff8386205416610760578085526002825260ff83862054161561074a5780855260038252828520548042111561072f5750845282815281842080549085905560028252828520805460ff19169055600382528285208590556106de9082906001600160a01b0361069f610eb7565b166106a8610ea1565b865163a9059cbb60e01b81526001600160a01b03909116888201908152602081019390935293849283918a918391604090910190565b03925af1918215610725578592610708575b5050156106fb578280f35b516312171d8360e31b8152fd5b61071e9250803d1061047a5761046c8183610bfd565b5f806106f0565b83513d87823e3d90fd5b9251631d7c60d760e31b815293840152506024820152604490fd5b836024918451916302579c5f60e11b8352820152fd5b836024918451916355c0e68760e11b8352820152fd5b5050346100f557816003193601126100f557602090517f89e7d3d45a7c3373446060ba95246f78890d1ed28ab919d04bfc7f4fe5454ef58152f35b9050346101265760203660031901126101265760209282913581526003845220549051908152f35b5050346100f5576101803660031901126100f5576020906107fc6101e836610c33565b9051908152f35b90503461012657602036600319011261012657602092818392358252845220549051908152f35b5050346100f557816003193601126100f557517f00000000000000000000000000000000000000000000000000000000000000006001600160a01b03168152602090f35b905034610126576020366003190112610126578160209360ff923581526002855220541690519015158152f35b8383346100f55736600319016101a0811261012657610180136100f55767ffffffffffffffff90610184358281116105d6576108da9036908601610bcb565b94909160018060a01b0393847f00000000000000000000000000000000000000000000000000000000000000001694825197630c570df360e11b895233858a015260209560249987818c818c5afa9081156105c8578a91610b6d575b5015610b5d57896109496101e836610c33565b98898b528a895260ff878c205416610b48578890875192838092636524d36160e01b82528d8c8301525afa9081156105c8578a91610b2b575b50610b155783610990610e71565b1642108015610b03575b610aed57906109a99188610ee3565b81806109b3610ea1565b16911603610ade578785826109c6610eb7565b169260646109d2610ea1565b8b60e43596895196879586946323b872dd60e01b8652168c85015230908401528760448401525af1908115610ad4578891610ab7575b5015610aa85785875260028552828720600160ff1982541617905583855282872055610258420192834211610a9657507fec6d53cf87796a633fc335ea94d8b6f31b79a20cc4984e16faab721fa17cebfa949596508281610a67610e89565b1610610a83575b5084865260038352818187205551908152a280f35b909150610a8e610e89565b169086610a6e565b634e487b7160e01b8752601190528686fd5b5050516312171d8360e31b8152fd5b610ace9150863d881161047a5761046c8183610bfd565b89610a08565b84513d8a823e3d90fd5b505051635cd5d23360e01b8152fd5b84516324de6f8f60e11b81528087018990528a90fd5b5083610b0d610e89565b16421161099a565b84516377bc37a960e11b81528087018990528a90fd5b610b429150883d8a1161047a5761046c8183610bfd565b8b610982565b5085516355c0e68760e11b81528088018a9052fd5b84516341c8302160e11b81528690fd5b610b849150883d8a1161047a5761046c8183610bfd565b8b610936565b5050346100f557816003193601126100f557602090516102588152f35b929150346105d65760203660031901126105d6579283602094358252845220548152f35b9181601f84011215610bf95782359167ffffffffffffffff8311610bf95760208381860195010111610bf957565b5f80fd5b90601f8019910116810190811067ffffffffffffffff821117610c1f57604052565b634e487b7160e01b5f52604160045260245ffd5b9061018080926003190112610bf95760405167ffffffffffffffff92810183811182821017610c1f576040529182906001600160a01b036004358181168103610bf95783526024358181168103610bf957602084015260443560408401526064356060840152608435608084015260a43560a084015260c4359081168103610bf95760c083015260e43560e083015261010435610100830152610124358181168103610bf957610120830152610144359081168103610bf95761014082015261016061016435910152565b600160a01b600190039081815116908260208201511692604082015190606083015191608084015160a08501519260c0860151169060e086015191610100808801519561012093848a015167ffffffffffffffff169861014097888c015167ffffffffffffffff169b61016001519c6040519e8f91602083017f89e7d3d45a7c3373446060ba95246f78890d1ed28ab919d04bfc7f4fe5454ef59052604083015260608201526080015260a08d015260c08c015260e08b01528901528701528501526101608401526101808301526101a0908183015281526101c0810181811067ffffffffffffffff821117610c1f578060405261024082516020840120926101e081019361190160f01b85527f00000000000000000000000000000000000000000000000000000000000000006101e2830152610202820152604283520181811067ffffffffffffffff821117610c1f5760405251902090565b90816020910312610bf957518015158103610bf95790565b6101243567ffffffffffffffff81168103610bf95790565b6101443567ffffffffffffffff81168103610bf95790565b6004356001600160a01b0381168103610bf95790565b60c4356001600160a01b0381168103610bf95790565b6024356001600160a01b0381168103610bf95790565b9091604103610fa657604091828101355f1a601b8110610f86575b60ff16601b81141580610f7b575b610f6a57602092835f936080938751938452828401528035878401520135606082015282805260015afa15610f61575f51906001600160a01b03821615610f51575090565b51635cd5d23360e01b8152600490fd5b513d5f823e3d90fd5b8351635cd5d23360e01b8152600490fd5b50601c811415610f0c565b601b0160ff811115610efe57634e487b7160e01b5f52601160045260245ffd5b604051635cd5d23360e01b8152600490fdfea2646970667358221220c0a21d4aea7b36b299f70639865215106dae79ef8902aa899516ff7a9313991664736f6c63430008140033","linkReferences":{}},"methodIdentifiers":{"CSD_USDC_AUTH_TYPEHASH()":"bcde3f49","SETTLEMENT_LOCK_SECONDS()":"48d25d34","consumedCsdTx(bytes32)":"e7cf2c0a","domainSeparator()":"f698da25","finalizedAuthorization(bytes32)":"c931cb29","hashCsdUsdcAuthorization((address,address,bytes32,bytes32,bytes32,uint256,address,uint256,uint256,uint64,uint64,bytes32))":"95c3c4de","lockCsdUsdcAuthorization((address,address,bytes32,bytes32,bytes32,uint256,address,uint256,uint256,uint64,uint64,bytes32),bytes)":"5abb7d4c","lockedAmount(bytes32)":"172a16a4","lockedBalance(bytes32)":"7e93bafd","lockedUntil(bytes32)":"990f9bf7","refundExpiredLock((address,address,bytes32,bytes32,bytes32,uint256,address,uint256,uint256,uint64,uint64,bytes32))":"c7112a99","registry()":"7b103999","settleCsdUsdc((address,address,bytes32,bytes32,bytes32,uint256,address,uint256,uint256,uint64,uint64,bytes32),bytes,(bytes32,bytes32,bytes32,bytes32,uint256,uint256,bytes32,uint256))":"d1e836b9","usdcLocked(bytes32)":"5cef910e"},"id":18}