{"abi":[{"type":"constructor","inputs":[{"name":"name_","type":"string","internalType":"string"},{"name":"symbol_","type":"string","internalType":"string"},{"name":"decimals_","type":"uint8","internalType":"uint8"}],"stateMutability":"nonpayable"},{"type":"function","name":"allowance","inputs":[{"name":"","type":"address","internalType":"address"},{"name":"","type":"address","internalType":"address"}],"outputs":[{"name":"","type":"uint256","internalType":"uint256"}],"stateMutability":"view"},{"type":"function","name":"approve","inputs":[{"name":"spender","type":"address","internalType":"address"},{"name":"amount","type":"uint256","internalType":"uint256"}],"outputs":[{"name":"","type":"bool","internalType":"bool"}],"stateMutability":"nonpayable"},{"type":"function","name":"balanceOf","inputs":[{"name":"","type":"address","internalType":"address"}],"outputs":[{"name":"","type":"uint256","internalType":"uint256"}],"stateMutability":"view"},{"type":"function","name":"decimals","inputs":[],"outputs":[{"name":"","type":"uint8","internalType":"uint8"}],"stateMutability":"view"},{"type":"function","name":"mint","inputs":[{"name":"to","type":"address","internalType":"address"},{"name":"amount","type":"uint256","internalType":"uint256"}],"outputs":[],"stateMutability":"nonpayable"},{"type":"function","name":"name","inputs":[],"outputs":[{"name":"","type":"string","internalType":"string"}],"stateMutability":"view"},{"type":"function","name":"symbol","inputs":[],"outputs":[{"name":"","type":"string","internalType":"string"}],"stateMutability":"view"},{"type":"function","name":"totalSupply","inputs":[],"outputs":[{"name":"","type":"uint256","internalType":"uint256"}],"stateMutability":"view"},{"type":"function","name":"transferFrom","inputs":[{"name":"from","type":"address","internalType":"address"},{"name":"to","type":"address","internalType":"address"},{"name":"amount","type":"uint256","internalType":"uint256"}],"outputs":[{"name":"","type":"bool","internalType":"bool"}],"stateMutability":"nonpayable"},{"type":"event","name":"Approval","inputs":[{"name":"owner","type":"address","indexed":true,"internalType":"address"},{"name":"spender","type":"address","indexed":true,"internalType":"address"},{"name":"amount","type":"uint256","indexed":false,"internalType":"uint256"}],"anonymous":false},{"type":"event","name":"Transfer","inputs":[{"name":"from","type":"address","indexed":true,"internalType":"address"},{"name":"to","type":"address","indexed":true,"internalType":"address"},{"name":"amount","type":"uint256","indexed":false,"internalType":"uint256"}],"anonymous":false}],"bytecode":{"object":"0x60a060405234620003335762000a5d803803806200001d8162000337565b928339810190606081830312620003335780516001600160401b03908181116200033357836200004f9184016200035d565b906020938484015182811162000333576040916200006f9186016200035d565b9301519260ff8416840362000333578251908282116200031f575f8054926001958685811c9516801562000314575b8986101462000300578190601f95868111620002ad575b5089908683116001146200024a5784926200023e575b50505f19600383901b1c191690861b1781555b81519384116200022a5784548581811c911680156200021f575b888210146200020b57838111620001c3575b50869284116001146200015e5783949596509262000152575b50505f19600383901b1c191690821b1790555b60805260405161068f9081620003ce8239608051816102be0152f35b015190505f8062000123565b9190601f1984169685845280842093905b888210620001ab575050838596971062000192575b505050811b01905562000136565b01515f1960f88460031b161c191690555f808062000184565b8087859682949686015181550195019301906200016f565b8582528782208480870160051c8201928a881062000201575b0160051c019086905b828110620001f55750506200010a565b838155018690620001e5565b92508192620001dc565b634e487b7160e01b82526022600452602482fd5b90607f1690620000f8565b634e487b7160e01b81526041600452602490fd5b015190505f80620000cb565b8480528a85208994509190601f198416865b8d8282106200029657505084116200027d575b505050811b018155620000de565b01515f1960f88460031b161c191690555f80806200026f565b8385015186558c979095019493840193016200025c565b9091508380528984208680850160051c8201928c8610620002f6575b918a91869594930160051c01915b828110620002e7575050620000b5565b8681558594508a9101620002d7565b92508192620002c9565b634e487b7160e01b83526022600452602483fd5b94607f16946200009e565b634e487b7160e01b5f52604160045260245ffd5b5f80fd5b6040519190601f01601f191682016001600160401b038111838210176200031f57604052565b919080601f84011215620003335782516001600160401b0381116200031f5760209062000393601f8201601f1916830162000337565b9281845282828701011162000333575f5b818110620003b95750825f9394955001015290565b8581018301518482018401528201620003a456fe60806040818152600480361015610014575f80fd5b5f92833560e01c90816306fdde03146104c157508063095ea7b31461045357806318160ddd1461043457806323b872dd146102e2578063313ce567146102a457806340c10f191461022b57806370a08231146101f357806395d89b41146100ce5763dd62ed3e14610083575f80fd5b346100ca57816003193601126100ca5760209282916100a06105fb565b6100a8610615565b6001600160a01b03918216845291865283832091168252845220549051908152f35b8280fd5b509190346101ef57816003193601126101ef5780519082600180549081811c908083169283156101e5575b60209384841081146101d2578388529081156101b65750600114610161575b505050829003601f01601f191682019267ffffffffffffffff84118385101761014e575082918261014a9252826105b4565b0390f35b634e487b7160e01b815260418552602490fd5b8087529192508591837fb10e2d527612073b26eecdfd717e6a320cf44b4afac2b0732d9fcbe2b7fa0cf65b8385106101a257505050508301015f8080610118565b80548886018301529301928490820161018c565b60ff1916878501525050151560051b84010190505f8080610118565b634e487b7160e01b895260228a52602489fd5b91607f16916100f9565b5080fd5b5050346101ef5760203660031901126101ef5760209181906001600160a01b0361021b6105fb565b1681526003845220549051908152f35b5050346101ef57806003193601126101ef57817fddf252ad1be2c89b69c2b068fc378daa952ba7f163c4a11628f55a4df523b3ef60206102696105fb565b602435906102798260025461062b565b60025560018060a01b0316948585526003835280852061029a83825461062b565b905551908152a380f35b5050346101ef57816003193601126101ef576020905160ff7f0000000000000000000000000000000000000000000000000000000000000000168152f35b509134610431576060366003190112610431576102fd6105fb565b610305610615565b906044359060018060a01b038091169283855260209660038852838787205410610404578486528088528686203387528852868620548481106103d55792849288928a957fddf252ad1be2c89b69c2b068fc378daa952ba7f163c4a11628f55a4df523b3ef975f1982036103b2575b5050508688526003855282882061038c85825461064c565b9055169586815260038452206103a382825461062b565b90558551908152a35160018152f35b6103bb9161064c565b90888a528652838920338a528652838920555f8085610374565b875162461bcd60e51b81528083018a90526009602482015268414c4c4f57414e434560b81b6044820152606490fd5b865162461bcd60e51b8152908101889052600760248201526642414c414e434560c81b6044820152606490fd5b80fd5b5050346101ef57816003193601126101ef576020906002549051908152f35b50346100ca57816003193601126100ca5760209261046f6105fb565b918360243592839233825287528181209460018060a01b0316948582528752205582519081527f8c5be1e5ebec7d5bd14f71427d1e84f3dd0314c0f7b2291e5b200ac8c7c3b925843392a35160018152f35b84915083346100ca57826003193601126100ca57828354600181811c908083169283156105aa575b60209384841081146101d25783885290811561058e575060011461053957505050829003601f01601f191682019267ffffffffffffffff84118385101761014e575082918261014a9252826105b4565b8680529192508591837f290decd9548b62a8d60345a988386fc84ba6bc95484008f6362f93160ef3e5635b83851061057a5750505050830101858080610118565b805488860183015293019284908201610564565b60ff1916878501525050151560051b8401019050858080610118565b91607f16916104e9565b602080825282518183018190529093925f5b8281106105e757505060409293505f838284010152601f8019910116010190565b8181018601518482016040015285016105c6565b600435906001600160a01b038216820361061157565b5f80fd5b602435906001600160a01b038216820361061157565b9190820180921161063857565b634e487b7160e01b5f52601160045260245ffd5b919082039182116106385756fea26469706673582212201fc959f9639f41b85db61187cacebbbca4cd5ccee4985a7eac8e83a8b8771bd064736f6c63430008140033","linkReferences":{}},"methodIdentifiers":{"allowance(address,address)":"dd62ed3e","approve(address,uint256)":"095ea7b3","balanceOf(address)":"70a08231","decimals()":"313ce567","mint(address,uint256)":"40c10f19","name()":"06fdde03","symbol()":"95d89b41","totalSupply()":"18160ddd","transferFrom(address,address,uint256)":"23b872dd"},"id":19}