{"abi":[{"type":"constructor","inputs":[{"name":"registry_","type":"address","internalType":"address"}],"stateMutability":"nonpayable"},{"type":"function","name":"AUTH_TYPEHASH","inputs":[],"outputs":[{"name":"","type":"bytes32","internalType":"bytes32"}],"stateMutability":"view"},{"type":"function","name":"ORDER_TYPEHASH","inputs":[],"outputs":[{"name":"","type":"bytes32","internalType":"bytes32"}],"stateMutability":"view"},{"type":"function","name":"SIDE_BUY_BASE","inputs":[],"outputs":[{"name":"","type":"uint8","internalType":"uint8"}],"stateMutability":"view"},{"type":"function","name":"SIDE_SELL_BASE","inputs":[],"outputs":[{"name":"","type":"uint8","internalType":"uint8"}],"stateMutability":"view"},{"type":"function","name":"domainSeparator","inputs":[],"outputs":[{"name":"","type":"bytes32","internalType":"bytes32"}],"stateMutability":"view"},{"type":"function","name":"filledBaseByOrder","inputs":[{"name":"","type":"bytes32","internalType":"bytes32"}],"outputs":[{"name":"","type":"uint256","internalType":"uint256"}],"stateMutability":"view"},{"type":"function","name":"hashSignedOrder","inputs":[{"name":"order","type":"tuple","internalType":"struct CovenantSpotSettlement.SignedOrder","components":[{"name":"trader","type":"address","internalType":"address"},{"name":"marketId","type":"bytes32","internalType":"bytes32"},{"name":"side","type":"uint8","internalType":"uint8"},{"name":"orderType","type":"uint8","internalType":"uint8"},{"name":"price","type":"uint256","internalType":"uint256"},{"name":"baseAmount","type":"uint256","internalType":"uint256"},{"name":"timeInForce","type":"uint8","internalType":"uint8"},{"name":"orderNonce","type":"bytes32","internalType":"bytes32"},{"name":"sessionAuthHash","type":"bytes32","internalType":"bytes32"},{"name":"validAfter","type":"uint64","internalType":"uint64"},{"name":"validBefore","type":"uint64","internalType":"uint64"}]}],"outputs":[{"name":"","type":"bytes32","internalType":"bytes32"}],"stateMutability":"view"},{"type":"function","name":"hashTradingSessionAuthorization","inputs":[{"name":"auth","type":"tuple","internalType":"struct CovenantSpotSettlement.TradingSessionAuthorization","components":[{"name":"grantor","type":"address","internalType":"address"},{"name":"executor","type":"address","internalType":"address"},{"name":"settlementContract","type":"address","internalType":"address"},{"name":"baseToken","type":"address","internalType":"address"},{"name":"quoteToken","type":"address","internalType":"address"},{"name":"marketId","type":"bytes32","internalType":"bytes32"},{"name":"sideMask","type":"uint8","internalType":"uint8"},{"name":"maxBaseExposure","type":"uint256","internalType":"uint256"},{"name":"maxQuoteExposure","type":"uint256","internalType":"uint256"},{"name":"minPrice","type":"uint256","internalType":"uint256"},{"name":"maxPrice","type":"uint256","internalType":"uint256"},{"name":"validAfter","type":"uint64","internalType":"uint64"},{"name":"validBefore","type":"uint64","internalType":"uint64"},{"name":"authNonce","type":"bytes32","internalType":"bytes32"}]}],"outputs":[{"name":"","type":"bytes32","internalType":"bytes32"}],"stateMutability":"view"},{"type":"function","name":"registry","inputs":[],"outputs":[{"name":"","type":"address","internalType":"contract CovenantAuthorizationRegistry"}],"stateMutability":"view"},{"type":"function","name":"settleSpotTrade","inputs":[{"name":"makerAuth","type":"tuple","internalType":"struct CovenantSpotSettlement.TradingSessionAuthorization","components":[{"name":"grantor","type":"address","internalType":"address"},{"name":"executor","type":"address","internalType":"address"},{"name":"settlementContract","type":"address","internalType":"address"},{"name":"baseToken","type":"address","internalType":"address"},{"name":"quoteToken","type":"address","internalType":"address"},{"name":"marketId","type":"bytes32","internalType":"bytes32"},{"name":"sideMask","type":"uint8","internalType":"uint8"},{"name":"maxBaseExposure","type":"uint256","internalType":"uint256"},{"name":"maxQuoteExposure","type":"uint256","internalType":"uint256"},{"name":"minPrice","type":"uint256","internalType":"uint256"},{"name":"maxPrice","type":"uint256","internalType":"uint256"},{"name":"validAfter","type":"uint64","internalType":"uint64"},{"name":"validBefore","type":"uint64","internalType":"uint64"},{"name":"authNonce","type":"bytes32","internalType":"bytes32"}]},{"name":"makerAuthSig","type":"bytes","internalType":"bytes"},{"name":"makerOrder","type":"tuple","internalType":"struct CovenantSpotSettlement.SignedOrder","components":[{"name":"trader","type":"address","internalType":"address"},{"name":"marketId","type":"bytes32","internalType":"bytes32"},{"name":"side","type":"uint8","internalType":"uint8"},{"name":"orderType","type":"uint8","internalType":"uint8"},{"name":"price","type":"uint256","internalType":"uint256"},{"name":"baseAmount","type":"uint256","internalType":"uint256"},{"name":"timeInForce","type":"uint8","internalType":"uint8"},{"name":"orderNonce","type":"bytes32","internalType":"bytes32"},{"name":"sessionAuthHash","type":"bytes32","internalType":"bytes32"},{"name":"validAfter","type":"uint64","internalType":"uint64"},{"name":"validBefore","type":"uint64","internalType":"uint64"}]},{"name":"makerOrderSig","type":"bytes","internalType":"bytes"},{"name":"takerAuth","type":"tuple","internalType":"struct CovenantSpotSettlement.TradingSessionAuthorization","components":[{"name":"grantor","type":"address","internalType":"address"},{"name":"executor","type":"address","internalType":"address"},{"name":"settlementContract","type":"address","internalType":"address"},{"name":"baseToken","type":"address","internalType":"address"},{"name":"quoteToken","type":"address","internalType":"address"},{"name":"marketId","type":"bytes32","internalType":"bytes32"},{"name":"sideMask","type":"uint8","internalType":"uint8"},{"name":"maxBaseExposure","type":"uint256","internalType":"uint256"},{"name":"maxQuoteExposure","type":"uint256","internalType":"uint256"},{"name":"minPrice","type":"uint256","internalType":"uint256"},{"name":"maxPrice","type":"uint256","internalType":"uint256"},{"name":"validAfter","type":"uint64","internalType":"uint64"},{"name":"validBefore","type":"uint64","internalType":"uint64"},{"name":"authNonce","type":"bytes32","internalType":"bytes32"}]},{"name":"takerAuthSig","type":"bytes","internalType":"bytes"},{"name":"takerOrder","type":"tuple","internalType":"struct CovenantSpotSettlement.SignedOrder","components":[{"name":"trader","type":"address","internalType":"address"},{"name":"marketId","type":"bytes32","internalType":"bytes32"},{"name":"side","type":"uint8","internalType":"uint8"},{"name":"orderType","type":"uint8","internalType":"uint8"},{"name":"price","type":"uint256","internalType":"uint256"},{"name":"baseAmount","type":"uint256","internalType":"uint256"},{"name":"timeInForce","type":"uint8","internalType":"uint8"},{"name":"orderNonce","type":"bytes32","internalType":"bytes32"},{"name":"sessionAuthHash","type":"bytes32","internalType":"bytes32"},{"name":"validAfter","type":"uint64","internalType":"uint64"},{"name":"validBefore","type":"uint64","internalType":"uint64"}]},{"name":"takerOrderSig","type":"bytes","internalType":"bytes"},{"name":"fill","type":"tuple","internalType":"struct CovenantSpotSettlement.FillInstruction","components":[{"name":"makerOrderHash","type":"bytes32","internalType":"bytes32"},{"name":"takerOrderHash","type":"bytes32","internalType":"bytes32"},{"name":"makerAuthHash","type":"bytes32","internalType":"bytes32"},{"name":"takerAuthHash","type":"bytes32","internalType":"bytes32"},{"name":"price","type":"uint256","internalType":"uint256"},{"name":"baseAmount","type":"uint256","internalType":"uint256"},{"name":"quoteAmount","type":"uint256","internalType":"uint256"},{"name":"fillNonce","type":"bytes32","internalType":"bytes32"}]}],"outputs":[],"stateMutability":"nonpayable"},{"type":"function","name":"usedBaseByAuth","inputs":[{"name":"","type":"bytes32","internalType":"bytes32"}],"outputs":[{"name":"","type":"uint256","internalType":"uint256"}],"stateMutability":"view"},{"type":"function","name":"usedFillNonce","inputs":[{"name":"","type":"bytes32","internalType":"bytes32"}],"outputs":[{"name":"","type":"bool","internalType":"bool"}],"stateMutability":"view"},{"type":"function","name":"usedQuoteByAuth","inputs":[{"name":"","type":"bytes32","internalType":"bytes32"}],"outputs":[{"name":"","type":"uint256","internalType":"uint256"}],"stateMutability":"view"},{"type":"event","name":"AuthorizationConsumed","inputs":[{"name":"authHash","type":"bytes32","indexed":true,"internalType":"bytes32"},{"name":"baseDelta","type":"uint256","indexed":false,"internalType":"uint256"},{"name":"quoteDelta","type":"uint256","indexed":false,"internalType":"uint256"},{"name":"cumulativeBase","type":"uint256","indexed":false,"internalType":"uint256"},{"name":"cumulativeQuote","type":"uint256","indexed":false,"internalType":"uint256"}],"anonymous":false},{"type":"event","name":"OrderFilled","inputs":[{"name":"orderHash","type":"bytes32","indexed":true,"internalType":"bytes32"},{"name":"fillBase","type":"uint256","indexed":false,"internalType":"uint256"},{"name":"cumulativeFilledBase","type":"uint256","indexed":false,"internalType":"uint256"}],"anonymous":false},{"type":"event","name":"SpotTradeSettled","inputs":[{"name":"fillNonce","type":"bytes32","indexed":true,"internalType":"bytes32"},{"name":"makerOrderHash","type":"bytes32","indexed":true,"internalType":"bytes32"},{"name":"takerOrderHash","type":"bytes32","indexed":true,"internalType":"bytes32"},{"name":"makerAuthHash","type":"bytes32","indexed":false,"internalType":"bytes32"},{"name":"takerAuthHash","type":"bytes32","indexed":false,"internalType":"bytes32"},{"name":"maker","type":"address","indexed":false,"internalType":"address"},{"name":"taker","type":"address","indexed":false,"internalType":"address"},{"name":"baseToken","type":"address","indexed":false,"internalType":"address"},{"name":"quoteToken","type":"address","indexed":false,"internalType":"address"},{"name":"price","type":"uint256","indexed":false,"internalType":"uint256"},{"name":"baseAmount","type":"uint256","indexed":false,"internalType":"uint256"},{"name":"quoteAmount","type":"uint256","indexed":false,"internalType":"uint256"}],"anonymous":false},{"type":"error","name":"AuthExposureExceeded","inputs":[{"name":"authHash","type":"bytes32","internalType":"bytes32"}]},{"type":"error","name":"AuthorizationExpired","inputs":[{"name":"authHash","type":"bytes32","internalType":"bytes32"}]},{"type":"error","name":"AuthorizationRevoked","inputs":[{"name":"authHash","type":"bytes32","internalType":"bytes32"}]},{"type":"error","name":"BadSignature","inputs":[]},{"type":"error","name":"FillReplay","inputs":[{"name":"fillNonce","type":"bytes32","internalType":"bytes32"}]},{"type":"error","name":"InvalidMarket","inputs":[]},{"type":"error","name":"InvalidPrice","inputs":[]},{"type":"error","name":"InvalidSettlementContract","inputs":[]},{"type":"error","name":"InvalidSide","inputs":[]},{"type":"error","name":"OrderAmountExceeded","inputs":[{"name":"orderHash","type":"bytes32","internalType":"bytes32"}]},{"type":"error","name":"OrderCancelled","inputs":[{"name":"orderHash","type":"bytes32","internalType":"bytes32"}]},{"type":"error","name":"OrderExpired","inputs":[{"name":"orderHash","type":"bytes32","internalType":"bytes32"}]},{"type":"error","name":"TransferFailed","inputs":[]},{"type":"error","name":"UnauthorizedExecutor","inputs":[]}],"bytecode":{"object":"0x60c03462000164576001600160401b0390601f62001c9e38819003918201601f1916830192919084841183851017620001505781602092849260409687528339810103126200016457516001600160a01b038116908190036200016457608052600860208251620000708162000168565b828152016710dbdd995b985b9d60c21b81522090600160208251620000958162000168565b82815201603160f81b8152209080519160208301937f8b73c3c69bb8fe3d512ecc4cf759cc79239f7b179b0ffacaa9a75d522b39400f85528284015260608301524660808301523060a083015260a0825260c082019382851090851117620001505783905251902060a052611b19908162000185823960805181818161021a01528181610600015281816106d3015281816107950152818161085b0152611434015260a051818181610100015281816117c901526118fe0152f35b634e487b7160e01b5f52604160045260245ffd5b5f80fd5b604081019081106001600160401b03821117620001505760405256fe6080806040526004361015610012575f80fd5b5f3560e01c9081633847f441146114f1575080635110ee86146114b7578063583644101461148d5780637b02754b146114635780637b1039991461141f578063a49d55de14611405578063adb53f55146113ea578063dceaaf13146113ca578063dff59c6e146112f5578063e10ebc87146112c6578063f610000214610123578063f698da25146100e95763f973a209146100ab575f80fd5b346100e5575f3660031901126100e55760206040517fe197423c23847c4b1bb4fdff7d2a02cbee7616c13c96a51bcfea51547e5a3e3b8152f35b5f80fd5b346100e5575f3660031901126100e55760206040517f00000000000000000000000000000000000000000000000000000000000000008152f35b346100e55736600319016107c081126100e5576101c08091126100e5576101c4356001600160401b0381116100e557610160903690600401611672565b9091610160366101e31901126100e557610344356001600160401b0381116100e557610190903690600401611672565b9091366103631901126100e557610524356001600160401b0381116100e5576101bd903690600401611672565b919092610160610543193601126100e5576106a4356001600160401b0381116100e5576101ee903690600401611672565b929091610100366106c31901126100e557604051630c570df360e11b81523360048201526020816024817f00000000000000000000000000000000000000000000000000000000000000006001600160a01b03165afa908115610dbf575f916112a7575b50156111e05761026961026436611583565b61169f565b9560405161027681611516565b610364356001600160a01b03811690036100e557610364358152610384356001600160a01b03811690036100e5576103843560208201526103a4356001600160a01b03811690036100e5576103a43560408201526103c4356001600160a01b03811690036100e5576103c43560608201526103e4356001600160a01b03811690036100e5576103e43560808201526104043560a082015260ff610424351661042435036100e5576104243560c08201526104443560e082015261046435610100820152610484356101208201526104a4356101408201526001600160401b036104c435166104c435036100e5576104c4356101608201526001600160401b036104e435166104e435036100e5576103a0906104e435610180820152610504356101a082015261169f565b956040516103ad81611546565b6101e4356001600160a01b03811690036100e5576101e435815261020435602082015260ff610224351661022435036100e55761022435604082015260ff610244351661024435036100e5576102443560608201526102643560808201526102843560a082015260ff6102a435166102a435036100e5576102a43560c08201526102c43560e08201526102e4356101008201526001600160401b03610304351661030435036100e557610304356101208201526001600160401b03610324351661032435036100e557610489906103243561014082015261180a565b9860405161049681611546565b610544356001600160a01b03811690036100e55761054435815261056435602082015260ff610584351661058435036100e55761058435604082015260ff6105a435166105a435036100e5576105a43560608201526105c43560808201526105e43560a082015260ff610604351661060435036100e5576106043560c08201526106243560e0820152610644356101008201526001600160401b03610664351661066435036100e557610664356101208201526001600160401b03610684351661068435036100e557610572906106843561014082015261180a565b9a89610704351480159061129a575b611063578a6106c4351480159061128d575b611063576107a4355f52600360205260ff60405f205416611272576044356001600160a01b038116908190036100e55730036111f2576024356001600160a01b038116908190036100e55733036111e057604051636524d36160e01b8152600481018b90526020816024817f00000000000000000000000000000000000000000000000000000000000000006001600160a01b03165afa908115610dbf575f91611253575b5061123a57610164356001600160401b0381168091036100e5574210801561121d575b611204579061066a918a611a00565b60043592906001600160a01b03841684036100e5576001600160a01b0384811691160361109c57306103a4356001600160a01b0316036111f25733610384356001600160a01b0316036111e057604051636524d36160e01b8152600481018990526020816024817f00000000000000000000000000000000000000000000000000000000000000006001600160a01b03165afa908115610dbf575f916111c1575b506111a8576001600160401b036104c4351642108015611193575b61117a576001600160a01b0361036435811692909161074691908a611a00565b160361109c576001600160a01b039081166101e4359091160361109c5760a435610204350361106357856102e435036110635760405163e030914d60e01b8152600481018890526020816024817f00000000000000000000000000000000000000000000000000000000000000006001600160a01b03165afa908115610dbf575f9161115b575b50611142576001600160401b0361030435164210801561112d575b611114576001600160a01b036101e4358116929091610808919089611a00565b160361109c576001600160a01b03610364358116610544359091160361109c57610404356105643503611063578261064435036110635760405163e030914d60e01b8152600481018790526020816024817f00000000000000000000000000000000000000000000000000000000000000006001600160a01b03165afa908115610dbf575f916110f5575b506110dc576001600160401b036106643516421080156110c7575b6110ae576001600160a01b036105443581169290916108ce919088611a00565b160361109c576104043560a43503611063576001600160a01b036103c4358116906108f7611980565b161480159061107c575b61106357610564356102043514801590611075575b6110635761092261195e565b60ff8061092d61196f565b16911614610e185760c43560ff811681036100e5576109549061094e61195e565b906119d9565b15610e185761096d61096461196f565b610424356119d9565b15610e185760ff61097c61195e565b16158061104f575b15610ffb5761074435610264358110610fb8576105c43510610fb8575b6101243561074435108015610fec575b610fb8576104843561074435108015610fdd575b610fb8576107643561074435610764350204610744351461076435151715610fc95761078435670de0b6b3a76400006107443561076435020403610fb857825f52600260205261028435610a206107643560405f2054611951565b11610f9f57835f5260026020526105e435610a426107643560405f2054611951565b11610f86576107a4355f52600360205260405f20600160ff1982541617905560ff6102243516155f14610f0457815f525f602052610a876107643560405f2054611951565b60e4358111610eeb575f80516020611ac483398151915260808492835f525f6020528060405f2055600160205260405f2054604051916107643583525f602084015260408301526060820152a25b6105843560ff16610e6957805f525f602052610af86107643560405f2054611951565b610444358111610e50575f80516020611ac483398151915260808392835f525f6020528060405f2055600160205260405f2054604051916107643583525f602084015260408301526060820152a25b825f52600260205260405f20610b61610764358254611951565b9055835f52600260205260405f20610b7d610764358254611951565b905560ff610b8961195e565b161580610e3c575b15610de957610b9e6119c3565b610ba66119ac565b905b6001600160a01b03610bb8611980565b6040516323b872dd60e01b81526001600160a01b0384811660048301528516602482015261076435604482015291602091839160649183915f91165af1908115610dbf575f91610dca575b5015610d7e57610c64916020916001600160a01b03610c20611996565b6040516323b872dd60e01b81526001600160a01b039485166004820152939092166024840152610784356044840152919384929091169082905f9082906064820190565b03925af1908115610dbf575f91610d90575b5015610d7e57825f52600260205283604084815f205482519061076435825260208201527fb38583f2adb435cac858db9d3e8d3ca952ccb32307e2f3d0053b415d2d293481928391a2815f5260026020526040805f20548151906107643582526020820152a2610ce46119c3565b610cec6119ac565b610cf4611980565b91610cfd611996565b6040805196875260208701959095526001600160a01b0391821694860194909452908116606085015290811660808401521660a08201526107443560c08201526107643560e0820152610784356101008201526107a435907fbd6e6a27122790410bc46f6eff8736784d42b88042d50847da9b2b65bd5a9cf19061012090a4005b6040516312171d8360e31b8152600490fd5b610db2915060203d602011610db8575b610daa8183611562565b810190611939565b85610c76565b503d610da0565b6040513d5f823e3d90fd5b610de3915060203d602011610db857610daa8183611562565b87610c03565b600160ff610df561195e565b161480610e2a575b15610e1857610e0a6119ac565b610e126119c3565b90610ba8565b6040516306fd144d60e11b8152600490fd5b5060ff610e3561196f565b1615610dfd565b50600160ff610e4961196f565b1614610b91565b6040516376a9c3cd60e11b815260048101839052602490fd5b6105843560ff16600103610e1857805f526001602052610e906107843560405f2054611951565b610464358111610e5057815f52600160205260405f20555f602052805f80516020611ac4833981519152608060405f2054600160205260405f2054604051915f835261078435602084015260408301526060820152a2610b47565b6040516376a9c3cd60e11b815260048101849052602490fd5b6102243560ff16600103610e1857815f526001602052610f2b6107843560405f2054611951565b610104358111610eeb57825f52600160205260405f20555f602052815f80516020611ac4833981519152608060405f2054600160205260405f2054604051915f835261078435602084015260408301526060820152a2610ad5565b60405163201bfff760e21b815260048101859052602490fd5b60405163201bfff760e21b815260048101849052602490fd5b60405162bfc92160e01b8152600490fd5b634e487b7160e01b5f52601160045260245ffd5b506104a43561074435116109c5565b506101443561074435116109b1565b600160ff61100761195e565b16148061103d575b15610e185761074435610264358111610fb8576105c43511156109a15760405162bfc92160e01b8152600490fd5b5060ff61104861196f565b161561100f565b50600160ff61105c61196f565b1614610984565b604051639db8d5b160e01b8152600490fd5b505f610916565b506001600160a01b036103e435811690611094611996565b161415610901565b604051635cd5d23360e01b8152600490fd5b60405163173bae5760e11b815260048101879052602490fd5b506001600160401b03610684351642116108ae565b604051635152abf960e01b815260048101879052602490fd5b61110e915060203d602011610db857610daa8183611562565b87610893565b60405163173bae5760e11b815260048101889052602490fd5b506001600160401b03610324351642116107e8565b604051635152abf960e01b815260048101889052602490fd5b611174915060203d602011610db857610daa8183611562565b896107cd565b6040516324de6f8f60e11b815260048101899052602490fd5b506001600160401b036104e435164211610726565b6040516377bc37a960e11b815260048101899052602490fd5b6111da915060203d602011610db857610daa8183611562565b8c61070b565b6040516341c8302160e11b8152600490fd5b6040516378ad305160e11b8152600490fd5b6040516324de6f8f60e11b8152600481018b9052602490fd5b50610184356001600160401b0381168091036100e557421161065b565b6040516377bc37a960e11b8152600481018b9052602490fd5b61126c915060203d602011610db857610daa8183611562565b8d610638565b604051630e9a1aeb60e41b81526107a4356004820152602490fd5b508b6106e4351415610593565b5088610724351415610581565b6112c0915060203d602011610db857610daa8183611562565b89610252565b346100e55760203660031901126100e5576004355f526003602052602060ff60405f2054166040519015158152f35b346100e5576101603660031901126100e55760405161131381611546565b6004356001600160a01b03811681036100e5578152602435602082015260443560ff811681036100e557604082015260643560ff811681036100e5576060820152608435608082015260a43560a082015260c43560ff811681036100e55760c082015260e43560e0820152610104356101008201526001600160401b036101243581811681036100e5576101208301526101443590811681036100e557816113c291610140602094015261180a565b604051908152f35b346100e5576101c03660031901126100e55760206113c261026436611583565b346100e5575f3660031901126100e557602060405160018152f35b346100e5575f3660031901126100e55760206040515f8152f35b346100e5575f3660031901126100e5576040517f00000000000000000000000000000000000000000000000000000000000000006001600160a01b03168152602090f35b346100e55760203660031901126100e5576004355f526002602052602060405f2054604051908152f35b346100e55760203660031901126100e5576004355f526001602052602060405f2054604051908152f35b346100e5575f3660031901126100e55760206040517f17d2923e6d1cbb1d1566b7686677b09ae8cbd0d71eeaa35a86629157295f00f78152f35b346100e55760203660031901126100e5576020906004355f525f825260405f20548152f35b6101c081019081106001600160401b0382111761153257604052565b634e487b7160e01b5f52604160045260245ffd5b61016081019081106001600160401b0382111761153257604052565b90601f801991011681019081106001600160401b0382111761153257604052565b6101c09060031901126100e5576040519061159d82611516565b816001600160a01b0360043581811681036100e557825260243581811681036100e557602083015260443581811681036100e557604083015260643581811681036100e557606083015260843590811681036100e557608082015260a43560a082015260c43560ff811681036100e55760c082015260e43560e08201526101043561010082015261012435610120820152610144356101408201526001600160401b036101643581811681036100e5576101608301526101843590811681036100e5576101808201526101a06101a435910152565b9181601f840112156100e5578235916001600160401b0383116100e557602083818601950101116100e557565b600160a01b6001900390818151169082602082015116928060408301511690806060840151169060808401511660a084015160c085015160ff1660e0860151906101008088015193610120890151956101408a0151976101608b01516001600160401b0316996101808c01516001600160401b03169b6101a001519c6040519e8f91602083017f17d2923e6d1cbb1d1566b7686677b09ae8cbd0d71eeaa35a86629157295f00f79052604083015260608201526080015260a08d015260c08c015260e08b01528901526101208801526101408701526101608601526101808501526101a08401526101c08301526101e09081830152815261020081018181106001600160401b038211176115325760408190528151602083012061190160f01b61022084019081527f00000000000000000000000000000000000000000000000000000000000000006102228501526102429093015260428152611804606282611562565b51902090565b600160a01b6001900381511690602081015191604082015160ff1692606083015160ff16608084015160a08501519460c081015160ff169160e0820151906101009384840151946001600160401b0399610120938b8588015116988c61014080990151169a6040519e8f91602083019e8f7fe197423c23847c4b1bb4fdff7d2a02cbee7616c13c96a51bcfea51547e5a3e3b905260408401526060830152608082015260a0015260c08d015260e08c01528a0152880152860152610160850152610180908185015283526101a0830191838310908311176115325760408290528251902061190160f01b6101c084019081527f00000000000000000000000000000000000000000000000000000000000000006101c28501526101e29093015260428152611804606282611562565b908160209103126100e5575180151581036100e55790565b91908201809211610fc957565b6102243560ff811681036100e55790565b6105843560ff811681036100e55790565b6064356001600160a01b03811681036100e55790565b6084356001600160a01b03811681036100e55790565b610364356001600160a01b03811681036100e55790565b6004356001600160a01b03811681036100e55790565b9060ff16600181146119f757156119ef57505f90565b600216151590565b50600116151590565b909160410361109c57604091828101355f1a601b8110611aa3575b60ff16601b81141580611a98575b611a8757602092835f936080938751938452828401528035878401520135606082015282805260015afa15611a7e575f51906001600160a01b03821615611a6e575090565b51635cd5d23360e01b8152600490fd5b513d5f823e3d90fd5b8351635cd5d23360e01b8152600490fd5b50601c811415611a29565b601b0160ff811115611a1b57634e487b7160e01b5f52601160045260245ffdfed2572e2ea8e1c452f84b02599dacdfe49a483a82c7d15efdc11615ae5ca587dfa264697066735822122004c5c0d6c58d2cdcdcebbb312f8107cb339b8d555b04c5724f3ae777bd219fb364736f6c63430008140033","linkReferences":{}},"methodIdentifiers":{"AUTH_TYPEHASH()":"5110ee86","ORDER_TYPEHASH()":"f973a209","SIDE_BUY_BASE()":"adb53f55","SIDE_SELL_BASE()":"a49d55de","domainSeparator()":"f698da25","filledBaseByOrder(bytes32)":"7b02754b","hashSignedOrder((address,bytes32,uint8,uint8,uint256,uint256,uint8,bytes32,bytes32,uint64,uint64))":"dff59c6e","hashTradingSessionAuthorization((address,address,address,address,address,bytes32,uint8,uint256,uint256,uint256,uint256,uint64,uint64,bytes32))":"dceaaf13","registry()":"7b103999","settleSpotTrade((address,address,address,address,address,bytes32,uint8,uint256,uint256,uint256,uint256,uint64,uint64,bytes32),bytes,(address,bytes32,uint8,uint8,uint256,uint256,uint8,bytes32,bytes32,uint64,uint64),bytes,(address,address,address,address,address,bytes32,uint8,uint256,uint256,uint256,uint256,uint64,uint64,bytes32),bytes,(address,bytes32,uint8,uint8,uint256,uint256,uint8,bytes32,bytes32,uint64,uint64),bytes,(bytes32,bytes32,bytes32,bytes32,uint256,uint256,uint256,bytes32))":"f6100002","usedBaseByAuth(bytes32)":"3847f441","usedFillNonce(bytes32)":"e10ebc87","usedQuoteByAuth(bytes32)":"58364410"},"id":17}