{"abi":[{"type":"constructor","inputs":[],"stateMutability":"nonpayable"},{"type":"function","name":"authorizationOwner","inputs":[{"name":"","type":"bytes32","internalType":"bytes32"}],"outputs":[{"name":"","type":"address","internalType":"address"}],"stateMutability":"view"},{"type":"function","name":"cancelOrder","inputs":[{"name":"orderHash","type":"bytes32","internalType":"bytes32"}],"outputs":[],"stateMutability":"nonpayable"},{"type":"function","name":"cancelledOrder","inputs":[{"name":"","type":"bytes32","internalType":"bytes32"}],"outputs":[{"name":"","type":"bool","internalType":"bool"}],"stateMutability":"view"},{"type":"function","name":"orderOwner","inputs":[{"name":"","type":"bytes32","internalType":"bytes32"}],"outputs":[{"name":"","type":"address","internalType":"address"}],"stateMutability":"view"},{"type":"function","name":"owner","inputs":[],"outputs":[{"name":"","type":"address","internalType":"address"}],"stateMutability":"view"},{"type":"function","name":"registerAuthorization","inputs":[{"name":"authHash","type":"bytes32","internalType":"bytes32"},{"name":"authOwner","type":"address","internalType":"address"}],"outputs":[],"stateMutability":"nonpayable"},{"type":"function","name":"registerOrder","inputs":[{"name":"orderHash","type":"bytes32","internalType":"bytes32"},{"name":"trader","type":"address","internalType":"address"}],"outputs":[],"stateMutability":"nonpayable"},{"type":"function","name":"revokeAuthorization","inputs":[{"name":"authHash","type":"bytes32","internalType":"bytes32"}],"outputs":[],"stateMutability":"nonpayable"},{"type":"function","name":"revokedAuth","inputs":[{"name":"","type":"bytes32","internalType":"bytes32"}],"outputs":[{"name":"","type":"bool","internalType":"bool"}],"stateMutability":"view"},{"type":"function","name":"setTrustedExecutor","inputs":[{"name":"executor","type":"address","internalType":"address"},{"name":"isTrusted","type":"bool","internalType":"bool"}],"outputs":[],"stateMutability":"nonpayable"},{"type":"function","name":"trustedExecutor","inputs":[{"name":"","type":"address","internalType":"address"}],"outputs":[{"name":"","type":"bool","internalType":"bool"}],"stateMutability":"view"},{"type":"event","name":"AuthorizationRegistered","inputs":[{"name":"authHash","type":"bytes32","indexed":true,"internalType":"bytes32"},{"name":"authOwner","type":"address","indexed":true,"internalType":"address"}],"anonymous":false},{"type":"event","name":"AuthorizationRevoked","inputs":[{"name":"authHash","type":"bytes32","indexed":true,"internalType":"bytes32"},{"name":"revoker","type":"address","indexed":true,"internalType":"address"}],"anonymous":false},{"type":"event","name":"OrderCancelled","inputs":[{"name":"orderHash","type":"bytes32","indexed":true,"internalType":"bytes32"},{"name":"trader","type":"address","indexed":true,"internalType":"address"}],"anonymous":false},{"type":"event","name":"OrderRegistered","inputs":[{"name":"orderHash","type":"bytes32","indexed":true,"internalType":"bytes32"},{"name":"trader","type":"address","indexed":true,"internalType":"address"}],"anonymous":false},{"type":"event","name":"TrustedExecutorSet","inputs":[{"name":"executor","type":"address","indexed":true,"internalType":"address"},{"name":"isTrusted","type":"bool","indexed":false,"internalType":"bool"}],"anonymous":false},{"type":"error","name":"AuthorizationOwnerMismatch","inputs":[]},{"type":"error","name":"NotAuthorizationOwner","inputs":[]},{"type":"error","name":"NotOrderOwner","inputs":[]},{"type":"error","name":"NotOwner","inputs":[]},{"type":"error","name":"OrderOwnerMismatch","inputs":[]},{"type":"error","name":"UnauthorizedExecutor","inputs":[]},{"type":"error","name":"UnknownAuthorization","inputs":[]},{"type":"error","name":"UnknownOrder","inputs":[]}],"bytecode":{"object":"0x60808060405234610027575f80546001600160a01b0319163317905561058d908161002c8239f35b5f80fdfe60806040818152600480361015610014575f80fd5b5f92833560e01c9081630c89ee61146104f95750806318ae1be6146104bb5780633c633a211461042657806362ed7ddf146103f45780636524d361146103c85780637489ec23146103335780638da5cb5b146103075780639472c8c914610271578063ab223e12146101a4578063ab33b4a7146100c85763e030914d14610099575f80fd5b346100c45760203660031901126100c4578160209360ff923581526003855220541690519015158152f35b8280fd5b50346100c457816003193601126100c4578035906100e4610541565b92338552600160205260ff818620541615610197578285526005602052808520546001600160a01b0392908316801591908215908161018a575b5061017c575061012c578480f35b82855260056020528420921691826bffffffffffffffffffffffff60a01b8254161790557f981db094ac3079a69738bbec2812169d8f56cfd40df8c5ab52d275d7ace332d18380a35f8080808480f35b82516376773a5360e01b8152fd5b905084871614155f61011e565b516341c8302160e11b8152fd5b50346100c457816003193601126100c4578035906101c0610541565b92338552600160205260ff818620541615610197578285526020829052808520546001600160a01b039290831680159081159081610264575b5061025557610206578580f35b8386526020528420921691826bffffffffffffffffffffffff60a01b8254161790557fc9bc3c98ae81ed4af000cdfa69b48df762082e5faf737789fb7b5345f1399f268380a35f808080808580f35b5090516367bc669960e11b8152fd5b905084871614155f6101f9565b50346100c457816003193601126100c45761028a610527565b90602435918215158093036103035784546001600160a01b039290831633036102f55750916020917fc7f02c5d28a49197a3805b45759ee4c36bf1625d8c99bc3cdc0a6a51b84662cd9316938486526001835280862060ff1981541660ff841617905551908152a280f35b84516330cd747160e01b8152fd5b8480fd5b50503461032f578160031936011261032f57905490516001600160a01b039091168152602090f35b5080fd5b5090346100c45760203660031901126100c45781358084526005602052818420549092906001600160a01b031680156103b95733036103ab575081835260036020528220805460ff1916600117905533907fa6eb7cdc219e1518ced964e9a34e61d68a94e4f1569db3e84256ba981ba527538380a380f35b9051637b2095ad60e11b8152fd5b509051635c1c6f4b60e11b8152fd5b50346100c45760203660031901126100c4578160209360ff923581526002855220541690519015158152f35b50346100c45760203660031901126100c45735825260056020908152918190205490516001600160a01b039091168152f35b5090346100c45760203660031901126100c45781358084526020839052818420549092906001600160a01b031680156104ac57330361049e575081835260026020528220805460ff1916600117905533907fd6bd800a3822d3cbe128843994b77f8e25e35a4d2715fcc97ba7b3aa610282d98380a380f35b9051637c21747760e01b8152fd5b5090516329a5c38560e11b8152fd5b50503461032f57602036600319011261032f5760209160ff9082906001600160a01b036104e6610527565b1681526001855220541690519015158152f35b905083833461032f57602036600319011261032f578335825260209384529020546001600160a01b03168152f35b600435906001600160a01b038216820361053d57565b5f80fd5b602435906001600160a01b038216820361053d5756fea2646970667358221220c7b956ef81d8e9f489e6652231006b09d13d4254f2551feb1e69242ecd60a41e64736f6c63430008140033","linkReferences":{}},"methodIdentifiers":{"authorizationOwner(bytes32)":"0c89ee61","cancelOrder(bytes32)":"7489ec23","cancelledOrder(bytes32)":"e030914d","orderOwner(bytes32)":"62ed7ddf","owner()":"8da5cb5b","registerAuthorization(bytes32,address)":"ab223e12","registerOrder(bytes32,address)":"ab33b4a7","revokeAuthorization(bytes32)":"3c633a21","revokedAuth(bytes32)":"6524d361","setTrustedExecutor(address,bool)":"9472c8c9","trustedExecutor(address)":"18ae1be6"},"id":16}